{"abi":[{"type":"constructor","inputs":[],"stateMutability":"nonpayable"},{"type":"function","name":"approve","inputs":[{"name":"to","type":"address","internalType":"address"},{"name":"tokenId","type":"uint256","internalType":"uint256"}],"outputs":[],"stateMutability":"nonpayable"},{"type":"function","name":"balanceOf","inputs":[{"name":"owner","type":"address","internalType":"address"}],"outputs":[{"name":"","type":"uint256","internalType":"uint256"}],"stateMutability":"view"},{"type":"function","name":"createReceipt","inputs":[{"name":"_recipient","type":"address","internalType":"address"},{"name":"tokenURI","type":"string","internalType":"string"},{"name":"_payloadHash","type":"bytes32","internalType":"bytes32"},{"name":"_routingInfo","type":"string","internalType":"string"},{"name":"_info","type":"tuple","internalType":"struct Gateway.ExecutionInfo","components":[{"name":"user_key","type":"bytes","internalType":"bytes"},{"name":"user_pubkey","type":"bytes","internalType":"bytes"},{"name":"routing_code_hash","type":"string","internalType":"string"},{"name":"task_destination_network","type":"string","internalType":"string"},{"name":"handle","type":"string","internalType":"string"},{"name":"nonce","type":"bytes12","internalType":"bytes12"},{"name":"callback_gas_limit","type":"uint32","internalType":"uint32"},{"name":"payload","type":"bytes","internalType":"bytes"},{"name":"payload_signature","type":"bytes","internalType":"bytes"}]}],"outputs":[{"name":"","type":"uint256","internalType":"uint256"}],"stateMutability":"payable"},{"type":"function","name":"getApproved","inputs":[{"name":"tokenId","type":"uint256","internalType":"uint256"}],"outputs":[{"name":"","type":"address","internalType":"address"}],"stateMutability":"view"},{"type":"function","name":"getLastTokenId","inputs":[],"outputs":[{"name":"","type":"uint256","internalType":"uint256"}],"stateMutability":"view"},{"type":"function","name":"getSenderAndRecipient","inputs":[{"name":"tokenId","type":"uint256","internalType":"uint256"}],"outputs":[{"name":"","type":"address","internalType":"address"},{"name":"","type":"address","internalType":"address"}],"stateMutability":"view"},{"type":"function","name":"isApprovedForAll","inputs":[{"name":"owner","type":"address","internalType":"address"},{"name":"operator","type":"address","internalType":"address"}],"outputs":[{"name":"","type":"bool","internalType":"bool"}],"stateMutability":"view"},{"type":"function","name":"name","inputs":[],"outputs":[{"name":"","type":"string","internalType":"string"}],"stateMutability":"view"},{"type":"function","name":"ownerOf","inputs":[{"name":"tokenId","type":"uint256","internalType":"uint256"}],"outputs":[{"name":"","type":"address","internalType":"address"}],"stateMutability":"view"},{"type":"function","name":"revealData","inputs":[{"name":"tokenId","type":"uint256","internalType":"uint256"}],"outputs":[],"stateMutability":"nonpayable"},{"type":"function","name":"routing_code_hash","inputs":[],"outputs":[{"name":"","type":"string","internalType":"string"}],"stateMutability":"view"},{"type":"function","name":"routing_contract","inputs":[],"outputs":[{"name":"","type":"string","internalType":"string"}],"stateMutability":"view"},{"type":"function","name":"safeTransferFrom","inputs":[{"name":"from","type":"address","internalType":"address"},{"name":"to","type":"address","internalType":"address"},{"name":"tokenId","type":"uint256","internalType":"uint256"}],"outputs":[],"stateMutability":"nonpayable"},{"type":"function","name":"safeTransferFrom","inputs":[{"name":"from","type":"address","internalType":"address"},{"name":"to","type":"address","internalType":"address"},{"name":"tokenId","type":"uint256","internalType":"uint256"},{"name":"data","type":"bytes","internalType":"bytes"}],"outputs":[],"stateMutability":"nonpayable"},{"type":"function","name":"setApprovalForAll","inputs":[{"name":"operator","type":"address","internalType":"address"},{"name":"approved","type":"bool","internalType":"bool"}],"outputs":[],"stateMutability":"nonpayable"},{"type":"function","name":"setRoutingContractAddress","inputs":[{"name":"secretContract","type":"string","internalType":"string"}],"outputs":[],"stateMutability":"nonpayable"},{"type":"function","name":"supportsInterface","inputs":[{"name":"interfaceId","type":"bytes4","internalType":"bytes4"}],"outputs":[{"name":"","type":"bool","internalType":"bool"}],"stateMutability":"view"},{"type":"function","name":"symbol","inputs":[],"outputs":[{"name":"","type":"string","internalType":"string"}],"stateMutability":"view"},{"type":"function","name":"task_destination_network","inputs":[],"outputs":[{"name":"","type":"string","internalType":"string"}],"stateMutability":"view"},{"type":"function","name":"tokenURI","inputs":[{"name":"tokenId","type":"uint256","internalType":"uint256"}],"outputs":[{"name":"","type":"string","internalType":"string"}],"stateMutability":"view"},{"type":"function","name":"transferFrom","inputs":[{"name":"from","type":"address","internalType":"address"},{"name":"to","type":"address","internalType":"address"},{"name":"tokenId","type":"uint256","internalType":"uint256"}],"outputs":[],"stateMutability":"nonpayable"},{"type":"event","name":"Approval","inputs":[{"name":"owner","type":"address","indexed":true,"internalType":"address"},{"name":"approved","type":"address","indexed":true,"internalType":"address"},{"name":"tokenId","type":"uint256","indexed":true,"internalType":"uint256"}],"anonymous":false},{"type":"event","name":"ApprovalForAll","inputs":[{"name":"owner","type":"address","indexed":true,"internalType":"address"},{"name":"operator","type":"address","indexed":true,"internalType":"address"},{"name":"approved","type":"bool","indexed":false,"internalType":"bool"}],"anonymous":false},{"type":"event","name":"BatchMetadataUpdate","inputs":[{"name":"_fromTokenId","type":"uint256","indexed":false,"internalType":"uint256"},{"name":"_toTokenId","type":"uint256","indexed":false,"internalType":"uint256"}],"anonymous":false},{"type":"event","name":"MetadataUpdate","inputs":[{"name":"_tokenId","type":"uint256","indexed":false,"internalType":"uint256"}],"anonymous":false},{"type":"event","name":"RevealEvent","inputs":[{"name":"tokenId","type":"uint256","indexed":true,"internalType":"uint256"},{"name":"recipient","type":"address","indexed":true,"internalType":"address"}],"anonymous":false},{"type":"event","name":"Transfer","inputs":[{"name":"from","type":"address","indexed":true,"internalType":"address"},{"name":"to","type":"address","indexed":true,"internalType":"address"},{"name":"tokenId","type":"uint256","indexed":true,"internalType":"uint256"}],"anonymous":false},{"type":"error","name":"ERC721IncorrectOwner","inputs":[{"name":"sender","type":"address","internalType":"address"},{"name":"tokenId","type":"uint256","internalType":"uint256"},{"name":"owner","type":"address","internalType":"address"}]},{"type":"error","name":"ERC721InsufficientApproval","inputs":[{"name":"operator","type":"address","internalType":"address"},{"name":"tokenId","type":"uint256","internalType":"uint256"}]},{"type":"error","name":"ERC721InvalidApprover","inputs":[{"name":"approver","type":"address","internalType":"address"}]},{"type":"error","name":"ERC721InvalidOperator","inputs":[{"name":"operator","type":"address","internalType":"address"}]},{"type":"error","name":"ERC721InvalidOwner","inputs":[{"name":"owner","type":"address","internalType":"address"}]},{"type":"error","name":"ERC721InvalidReceiver","inputs":[{"name":"receiver","type":"address","internalType":"address"}]},{"type":"error","name":"ERC721InvalidSender","inputs":[{"name":"sender","type":"address","internalType":"address"}]},{"type":"error","name":"ERC721NonexistentToken","inputs":[{"name":"tokenId","type":"uint256","internalType":"uint256"}]}],"bytecode":{"object":"0x610100604052602d60a081815290611ce160c0396007906100209082610162565b50738eaab5e8551781f3e8eb745e7fcc7daeefd27b1f60805234801561004557600080fd5b50604051806040016040528060128152602001711058dadb9bdddb195919d9549958d95a5c1d60721b8152506040518060400160405280600381526020016210549560ea1b815250816000908161009c9190610162565b5060016100a98282610162565b5050600d80546001600160a01b0319163317905550610220565b634e487b7160e01b600052604160045260246000fd5b600181811c908216806100ed57607f821691505b60208210810361010d57634e487b7160e01b600052602260045260246000fd5b50919050565b601f82111561015d57806000526020600020601f840160051c8101602085101561013a5750805b601f840160051c820191505b8181101561015a5760008155600101610146565b50505b505050565b81516001600160401b0381111561017b5761017b6100c3565b61018f8161018984546100d9565b84610113565b6020601f8211600181146101c357600083156101ab5750848201515b600019600385901b1c1916600184901b17845561015a565b600084815260208120601f198516915b828110156101f357878501518255602094850194600190920191016101d3565b50848210156102115786840151600019600387901b60f8161c191681555b50505050600190811b01905550565b608051611aa661023b60003960006109b70152611aa66000f3fe60806040526004361061012a5760003560e01c80636352211e116100ab578063a22cb4651161006f578063a22cb4651461037d578063b88d4fde1461039d578063c87b56dd146103bd578063e985e9c5146103dd578063ede6a2fc146103fd578063f701f1ba1461041d57600080fd5b80636352211e146102d157806370a08231146102f157806383c4c00d1461031f57806395d89b411461033457806397ed06441461034957600080fd5b80632cf9558c116100f25780632cf9558c1461020057806331115b1c1461022057806342842e0e146102355780634851b760146102555780634d1f00b61461026a57600080fd5b806301ffc9a71461012f57806306fdde0314610164578063081812fc14610186578063095ea7b3146101be57806323b872dd146101e0575b600080fd5b34801561013b57600080fd5b5061014f61014a36600461121b565b610430565b60405190151581526020015b60405180910390f35b34801561017057600080fd5b5061017961045b565b60405161015b9190611288565b34801561019257600080fd5b506101a66101a136600461129b565b6104ed565b6040516001600160a01b03909116815260200161015b565b3480156101ca57600080fd5b506101de6101d93660046112d0565b610516565b005b3480156101ec57600080fd5b506101de6101fb3660046112fa565b610525565b34801561020c57600080fd5b506101de61021b36600461129b565b6105b5565b34801561022c57600080fd5b50610179610656565b34801561024157600080fd5b506101de6102503660046112fa565b610672565b34801561026157600080fd5b50610179610692565b34801561027657600080fd5b506102b161028536600461129b565b600090815260096020908152604080832054600a909252909120546001600160a01b0391821692911690565b604080516001600160a01b0393841681529290911660208301520161015b565b3480156102dd57600080fd5b506101a66102ec36600461129b565b610720565b3480156102fd57600080fd5b5061031161030c366004611337565b61072b565b60405190815260200161015b565b34801561032b57600080fd5b50600854610311565b34801561034057600080fd5b50610179610773565b34801561035557600080fd5b506101796040518060400160405280600881526020016770756c7361722d3360c01b81525081565b34801561038957600080fd5b506101de610398366004611352565b610782565b3480156103a957600080fd5b506101de6103b836600461141e565b61078d565b3480156103c957600080fd5b506101796103d836600461129b565b6107a4565b3480156103e957600080fd5b5061014f6103f836600461149a565b6108b5565b34801561040957600080fd5b506101de6104183660046114ed565b6108e3565b61031161042b36600461153b565b610939565b60006001600160e01b03198216632483248360e11b1480610455575061045582610a49565b92915050565b60606000805461046a90611620565b80601f016020809104026020016040519081016040528092919081815260200182805461049690611620565b80156104e35780601f106104b8576101008083540402835291602001916104e3565b820191906000526020600020905b8154815290600101906020018083116104c657829003601f168201915b5050505050905090565b60006104f882610a99565b506000828152600460205260409020546001600160a01b0316610455565b610521828233610ad2565b5050565b6001600160a01b03821661055457604051633250574960e11b8152600060048201526024015b60405180910390fd5b6000610561838333610adf565b9050836001600160a01b0316816001600160a01b0316146105af576040516364283d7b60e01b81526001600160a01b038086166004830152602482018490528216604482015260640161054b565b50505050565b6000818152600260205260409020546001600160a01b031633146106075760405162461bcd60e51b81526020600482015260096024820152682727aa2fa7aba722a960b91b604482015260640161054b565b6000818152600b602052604080822080546001600160a01b031916339081179091559051909183917f43d642ba9f6bc38bb1899907cd24fb61089adcc8c433957a7fe2fb5a5aac19c99190a350565b604051806060016040528060408152602001611a316040913981565b61068d8383836040518060200160405280600081525061078d565b505050565b6007805461069f90611620565b80601f01602080910402602001604051908101604052809291908181526020018280546106cb90611620565b80156107185780601f106106ed57610100808354040283529160200191610718565b820191906000526020600020905b8154815290600101906020018083116106fb57829003601f168201915b505050505081565b600061045582610a99565b60006001600160a01b038216610757576040516322718ad960e21b81526000600482015260240161054b565b506001600160a01b031660009081526003602052604090205490565b60606001805461046a90611620565b610521338383610bd8565b610798848484610525565b6105af84848484610c77565b60606107af82610a99565b50600082815260066020526040812080546107c990611620565b80601f01602080910402602001604051908101604052809291908181526020018280546107f590611620565b80156108425780601f1061081757610100808354040283529160200191610842565b820191906000526020600020905b81548152906001019060200180831161082557829003601f168201915b50505050509050600061086060408051602081019091526000815290565b90508051600003610872575092915050565b8151156108a457808260405160200161088c929190611654565b60405160208183030381529060405292505050919050565b6108ad84610da0565b949350505050565b6001600160a01b03918216600090815260056020908152604080832093909416825291909152205460ff1690565b600d546001600160a01b0316331461092d5760405162461bcd60e51b815260206004820152600d60248201526c2737ba103a34329037bbb732b960991b604482015260640161054b565b600761052182826116ca565b600880546000918291908261094d83611789565b91905055905061095d8882610e15565b6109678188610e7a565b600081815260096020908152604080832080546001600160a01b031990811633908117909255600a9093529281902080546001600160a01b038d811691909416179055516339624a6b60e21b81527f0000000000000000000000000000000000000000000000000000000000000000929183169163e58929ac9134916109f8918c91908c908c908c90600401611852565b60206040518083038185885af1158015610a16573d6000803e3d6000fd5b50505050506040513d601f19601f82011682018060405250810190610a3b91906119bd565b509098975050505050505050565b60006001600160e01b031982166380ac58cd60e01b1480610a7a57506001600160e01b03198216635b5e139f60e01b145b8061045557506301ffc9a760e01b6001600160e01b0319831614610455565b6000818152600260205260408120546001600160a01b03168061045557604051637e27328960e01b81526004810184905260240161054b565b61068d8383836001610eca565b6000828152600260205260408120546001600160a01b0390811690831615610b0c57610b0c818486610fd0565b6001600160a01b03811615610b4a57610b29600085600080610eca565b6001600160a01b038116600090815260036020526040902080546000190190555b6001600160a01b03851615610b79576001600160a01b0385166000908152600360205260409020805460010190555b60008481526002602052604080822080546001600160a01b0319166001600160a01b0389811691821790925591518793918516917fddf252ad1be2c89b69c2b068fc378daa952ba7f163c4a11628f55a4df523b3ef91a4949350505050565b6001600160a01b038216610c0a57604051630b61174360e31b81526001600160a01b038316600482015260240161054b565b6001600160a01b03838116600081815260056020908152604080832094871680845294825291829020805460ff191686151590811790915591519182527f17307eab39ab6107e8899845ad3d59bd9653f200f220920489ca2b5937696c31910160405180910390a3505050565b6001600160a01b0383163b156105af57604051630a85bd0160e11b81526001600160a01b0384169063150b7a0290610cb99033908890879087906004016119d6565b6020604051808303816000875af1925050508015610cf4575060408051601f3d908101601f19168201909252610cf191810190611a13565b60015b610d5d573d808015610d22576040519150601f19603f3d011682016040523d82523d6000602084013e610d27565b606091505b508051600003610d5557604051633250574960e11b81526001600160a01b038516600482015260240161054b565b805181602001fd5b6001600160e01b03198116630a85bd0160e11b14610d9957604051633250574960e11b81526001600160a01b038516600482015260240161054b565b5050505050565b6060610dab82610a99565b506000610dc360408051602081019091526000815290565b90506000815111610de35760405180602001604052806000815250610e0e565b80610ded84611034565b604051602001610dfe929190611654565b6040516020818303038152906040525b9392505050565b6001600160a01b038216610e3f57604051633250574960e11b81526000600482015260240161054b565b6000610e4d83836000610adf565b90506001600160a01b0381161561068d576040516339e3563760e11b81526000600482015260240161054b565b6000828152600660205260409020610e9282826116ca565b506040518281527ff8e1a15aba9398e019f0b49df1a4fde98ee17ae345cb5f6b5e2c27f5033e8ce79060200160405180910390a15050565b8080610ede57506001600160a01b03821615155b15610fa0576000610eee84610a99565b90506001600160a01b03831615801590610f1a5750826001600160a01b0316816001600160a01b031614155b8015610f2d5750610f2b81846108b5565b155b15610f565760405163a9fbf51f60e01b81526001600160a01b038416600482015260240161054b565b8115610f9e5783856001600160a01b0316826001600160a01b03167f8c5be1e5ebec7d5bd14f71427d1e84f3dd0314c0f7b2291e5b200ac8c7c3b92560405160405180910390a45b505b5050600090815260046020526040902080546001600160a01b0319166001600160a01b0392909216919091179055565b610fdb8383836110c7565b61068d576001600160a01b03831661100957604051637e27328960e01b81526004810182905260240161054b565b60405163177e802f60e01b81526001600160a01b03831660048201526024810182905260440161054b565b606060006110418361112a565b600101905060008167ffffffffffffffff8111156110615761106161138e565b6040519080825280601f01601f19166020018201604052801561108b576020820181803683370190505b5090508181016020015b600019016f181899199a1a9b1b9c1cb0b131b232b360811b600a86061a8153600a850494508461109557509392505050565b60006001600160a01b038316158015906108ad5750826001600160a01b0316846001600160a01b03161480611101575061110184846108b5565b806108ad5750506000908152600460205260409020546001600160a01b03908116911614919050565b60008072184f03e93ff9f4daa797ed6e38ed64bf6a1f0160401b83106111695772184f03e93ff9f4daa797ed6e38ed64bf6a1f0160401b830492506040015b6d04ee2d6d415b85acef81000000008310611195576d04ee2d6d415b85acef8100000000830492506020015b662386f26fc1000083106111b357662386f26fc10000830492506010015b6305f5e10083106111cb576305f5e100830492506008015b61271083106111df57612710830492506004015b606483106111f1576064830492506002015b600a83106104555760010192915050565b6001600160e01b03198116811461121857600080fd5b50565b60006020828403121561122d57600080fd5b8135610e0e81611202565b60005b8381101561125357818101518382015260200161123b565b50506000910152565b60008151808452611274816020860160208601611238565b601f01601f19169290920160200192915050565b602081526000610e0e602083018461125c565b6000602082840312156112ad57600080fd5b5035919050565b80356001600160a01b03811681146112cb57600080fd5b919050565b600080604083850312156112e357600080fd5b6112ec836112b4565b946020939093013593505050565b60008060006060848603121561130f57600080fd5b611318846112b4565b9250611326602085016112b4565b929592945050506040919091013590565b60006020828403121561134957600080fd5b610e0e826112b4565b6000806040838503121561136557600080fd5b61136e836112b4565b91506020830135801515811461138357600080fd5b809150509250929050565b634e487b7160e01b600052604160045260246000fd5b60008067ffffffffffffffff8411156113bf576113bf61138e565b50604051601f19601f85018116603f0116810181811067ffffffffffffffff821117156113ee576113ee61138e565b60405283815290508082840185101561140657600080fd5b83836020830137600060208583010152509392505050565b6000806000806080858703121561143457600080fd5b61143d856112b4565b935061144b602086016112b4565b925060408501359150606085013567ffffffffffffffff81111561146e57600080fd5b8501601f8101871361147f57600080fd5b61148e878235602084016113a4565b91505092959194509250565b600080604083850312156114ad57600080fd5b6114b6836112b4565b91506114c4602084016112b4565b90509250929050565b600082601f8301126114de57600080fd5b610e0e838335602085016113a4565b6000602082840312156114ff57600080fd5b813567ffffffffffffffff81111561151657600080fd5b6108ad848285016114cd565b6000610120828403121561153557600080fd5b50919050565b60008060008060008060a0878903121561155457600080fd5b61155d876112b4565b9550602087013567ffffffffffffffff81111561157957600080fd5b61158589828a016114cd565b95505060408701359350606087013567ffffffffffffffff8111156115a957600080fd5b8701601f810189136115ba57600080fd5b803567ffffffffffffffff8111156115d157600080fd5b8960208284010111156115e357600080fd5b60209190910193509150608087013567ffffffffffffffff81111561160757600080fd5b61161389828a01611522565b9150509295509295509295565b600181811c9082168061163457607f821691505b60208210810361153557634e487b7160e01b600052602260045260246000fd5b60008351611666818460208801611238565b83519083019061167a818360208801611238565b01949350505050565b601f82111561068d57806000526020600020601f840160051c810160208510156116aa5750805b601f840160051c820191505b81811015610d9957600081556001016116b6565b815167ffffffffffffffff8111156116e4576116e461138e565b6116f8816116f28454611620565b84611683565b6020601f82116001811461172c57600083156117145750848201515b600019600385901b1c1916600184901b178455610d99565b600084815260208120601f198516915b8281101561175c578785015182556020948501946001909201910161173c565b508482101561177a5786840151600019600387901b60f8161c191681555b50505050600190811b01905550565b6000600182016117a957634e487b7160e01b600052601160045260246000fd5b5060010190565b81835281816020850137506000828201602090810191909152601f909101601f19169091010190565b6000808335601e198436030181126117f057600080fd5b830160208101925035905067ffffffffffffffff81111561181057600080fd5b80360382131561181f57600080fd5b9250929050565b80356001600160a01b0319811681146112cb57600080fd5b803563ffffffff811681146112cb57600080fd5b8581526001600160a01b038516602082015260806040820181905260009061187d90830185876117b0565b828103606084015261188f84856117d9565b61012083526118a3610120840182846117b0565b9150506118b360208601866117d9565b83830360208501526118c68382846117b0565b925050506118d760408601866117d9565b83830360408501526118ea8382846117b0565b925050506118fb60608601866117d9565b838303606085015261190e8382846117b0565b9250505061191f60808601866117d9565b83830360808501526119328382846117b0565b9250505061194260a08601611826565b6001600160a01b03191660a083015261195d60c0860161183e565b63ffffffff1660c083015261197560e08601866117d9565b83830360e08501526119888382846117b0565b9250505061199a6101008601866117d9565b8383036101008501526119ae8382846117b0565b9b9a5050505050505050505050565b6000602082840312156119cf57600080fd5b5051919050565b6001600160a01b0385811682528416602082015260408101839052608060608201819052600090611a099083018461125c565b9695505050505050565b600060208284031215611a2557600080fd5b8151610e0e8161120256fe30356561323133386632643332373236663461366661383865643732383165336439633331666432626633366532613339633538663462613263323130323737a264697066735822122045146664126c38035ced846486f26884872c3f0fc93313f37e168aca7c18310564736f6c634300081a003373656372657431656834397776677a366a6b756d3467667a326b6570386e6b336c7a683271723739787966686c","linkReferences":{}},"methodIdentifiers":{"approve(address,uint256)":"095ea7b3","balanceOf(address)":"70a08231","createReceipt(address,string,bytes32,string,(bytes,bytes,string,string,string,bytes12,uint32,bytes,bytes))":"f701f1ba","getApproved(uint256)":"081812fc","getLastTokenId()":"83c4c00d","getSenderAndRecipient(uint256)":"4d1f00b6","isApprovedForAll(address,address)":"e985e9c5","name()":"06fdde03","ownerOf(uint256)":"6352211e","revealData(uint256)":"2cf9558c","routing_code_hash()":"31115b1c","routing_contract()":"4851b760","safeTransferFrom(address,address,uint256)":"42842e0e","safeTransferFrom(address,address,uint256,bytes)":"b88d4fde","setApprovalForAll(address,bool)":"a22cb465","setRoutingContractAddress(string)":"ede6a2fc","supportsInterface(bytes4)":"01ffc9a7","symbol()":"95d89b41","task_destination_network()":"97ed0644","tokenURI(uint256)":"c87b56dd","transferFrom(address,address,uint256)":"23b872dd"},"id":35}