{"abi":[{"type":"constructor","inputs":[],"stateMutability":"nonpayable"},{"type":"function","name":"approve","inputs":[{"name":"to","type":"address","internalType":"address"},{"name":"tokenId","type":"uint256","internalType":"uint256"}],"outputs":[],"stateMutability":"nonpayable"},{"type":"function","name":"balanceOf","inputs":[{"name":"owner","type":"address","internalType":"address"}],"outputs":[{"name":"","type":"uint256","internalType":"uint256"}],"stateMutability":"view"},{"type":"function","name":"createReceipt","inputs":[{"name":"_recipient","type":"address","internalType":"address"},{"name":"tokenURI","type":"string","internalType":"string"},{"name":"encryptedMessage","type":"string","internalType":"string"}],"outputs":[{"name":"","type":"uint256","internalType":"uint256"}],"stateMutability":"payable"},{"type":"function","name":"getApproved","inputs":[{"name":"tokenId","type":"uint256","internalType":"uint256"}],"outputs":[{"name":"","type":"address","internalType":"address"}],"stateMutability":"view"},{"type":"function","name":"getLastTokenId","inputs":[],"outputs":[{"name":"","type":"uint256","internalType":"uint256"}],"stateMutability":"view"},{"type":"function","name":"isApprovedForAll","inputs":[{"name":"owner","type":"address","internalType":"address"},{"name":"operator","type":"address","internalType":"address"}],"outputs":[{"name":"","type":"bool","internalType":"bool"}],"stateMutability":"view"},{"type":"function","name":"name","inputs":[],"outputs":[{"name":"","type":"string","internalType":"string"}],"stateMutability":"view"},{"type":"function","name":"ownerOf","inputs":[{"name":"tokenId","type":"uint256","internalType":"uint256"}],"outputs":[{"name":"","type":"address","internalType":"address"}],"stateMutability":"view"},{"type":"function","name":"revealData","inputs":[{"name":"tokenId","type":"uint256","internalType":"uint256"}],"outputs":[],"stateMutability":"nonpayable"},{"type":"function","name":"routing_code_hash","inputs":[],"outputs":[{"name":"","type":"string","internalType":"string"}],"stateMutability":"view"},{"type":"function","name":"routing_contract","inputs":[],"outputs":[{"name":"","type":"string","internalType":"string"}],"stateMutability":"view"},{"type":"function","name":"safeTransferFrom","inputs":[{"name":"from","type":"address","internalType":"address"},{"name":"to","type":"address","internalType":"address"},{"name":"tokenId","type":"uint256","internalType":"uint256"}],"outputs":[],"stateMutability":"nonpayable"},{"type":"function","name":"safeTransferFrom","inputs":[{"name":"from","type":"address","internalType":"address"},{"name":"to","type":"address","internalType":"address"},{"name":"tokenId","type":"uint256","internalType":"uint256"},{"name":"data","type":"bytes","internalType":"bytes"}],"outputs":[],"stateMutability":"nonpayable"},{"type":"function","name":"sendMessage","inputs":[{"name":"action","type":"string","internalType":"string"},{"name":"payload","type":"bytes","internalType":"bytes"}],"outputs":[],"stateMutability":"nonpayable"},{"type":"function","name":"setApprovalForAll","inputs":[{"name":"operator","type":"address","internalType":"address"},{"name":"approved","type":"bool","internalType":"bool"}],"outputs":[],"stateMutability":"nonpayable"},{"type":"function","name":"setRoutingContractAddress","inputs":[{"name":"secretContract","type":"string","internalType":"string"}],"outputs":[],"stateMutability":"nonpayable"},{"type":"function","name":"supportsInterface","inputs":[{"name":"interfaceId","type":"bytes4","internalType":"bytes4"}],"outputs":[{"name":"","type":"bool","internalType":"bool"}],"stateMutability":"view"},{"type":"function","name":"symbol","inputs":[],"outputs":[{"name":"","type":"string","internalType":"string"}],"stateMutability":"view"},{"type":"function","name":"task_destination_network","inputs":[],"outputs":[{"name":"","type":"string","internalType":"string"}],"stateMutability":"view"},{"type":"function","name":"tokenURI","inputs":[{"name":"tokenId","type":"uint256","internalType":"uint256"}],"outputs":[{"name":"","type":"string","internalType":"string"}],"stateMutability":"view"},{"type":"function","name":"transferFrom","inputs":[{"name":"from","type":"address","internalType":"address"},{"name":"to","type":"address","internalType":"address"},{"name":"tokenId","type":"uint256","internalType":"uint256"}],"outputs":[],"stateMutability":"nonpayable"},{"type":"event","name":"Approval","inputs":[{"name":"owner","type":"address","indexed":true,"internalType":"address"},{"name":"approved","type":"address","indexed":true,"internalType":"address"},{"name":"tokenId","type":"uint256","indexed":true,"internalType":"uint256"}],"anonymous":false},{"type":"event","name":"ApprovalForAll","inputs":[{"name":"owner","type":"address","indexed":true,"internalType":"address"},{"name":"operator","type":"address","indexed":true,"internalType":"address"},{"name":"approved","type":"bool","indexed":false,"internalType":"bool"}],"anonymous":false},{"type":"event","name":"BatchMetadataUpdate","inputs":[{"name":"_fromTokenId","type":"uint256","indexed":false,"internalType":"uint256"},{"name":"_toTokenId","type":"uint256","indexed":false,"internalType":"uint256"}],"anonymous":false},{"type":"event","name":"MetadataUpdate","inputs":[{"name":"_tokenId","type":"uint256","indexed":false,"internalType":"uint256"}],"anonymous":false},{"type":"event","name":"RevealEvent","inputs":[{"name":"tokenId","type":"uint256","indexed":true,"internalType":"uint256"},{"name":"recipient","type":"address","indexed":true,"internalType":"address"}],"anonymous":false},{"type":"event","name":"Transfer","inputs":[{"name":"from","type":"address","indexed":true,"internalType":"address"},{"name":"to","type":"address","indexed":true,"internalType":"address"},{"name":"tokenId","type":"uint256","indexed":true,"internalType":"uint256"}],"anonymous":false},{"type":"error","name":"ERC721IncorrectOwner","inputs":[{"name":"sender","type":"address","internalType":"address"},{"name":"tokenId","type":"uint256","internalType":"uint256"},{"name":"owner","type":"address","internalType":"address"}]},{"type":"error","name":"ERC721InsufficientApproval","inputs":[{"name":"operator","type":"address","internalType":"address"},{"name":"tokenId","type":"uint256","internalType":"uint256"}]},{"type":"error","name":"ERC721InvalidApprover","inputs":[{"name":"approver","type":"address","internalType":"address"}]},{"type":"error","name":"ERC721InvalidOperator","inputs":[{"name":"operator","type":"address","internalType":"address"}]},{"type":"error","name":"ERC721InvalidOwner","inputs":[{"name":"owner","type":"address","internalType":"address"}]},{"type":"error","name":"ERC721InvalidReceiver","inputs":[{"name":"receiver","type":"address","internalType":"address"}]},{"type":"error","name":"ERC721InvalidSender","inputs":[{"name":"sender","type":"address","internalType":"address"}]},{"type":"error","name":"ERC721NonexistentToken","inputs":[{"name":"tokenId","type":"uint256","internalType":"uint256"}]}],"bytecode":{"object":"0x610100604052602d60a081815290611e2660c0396007906100209082610162565b50738eaab5e8551781f3e8eb745e7fcc7daeefd27b1f60805234801561004557600080fd5b50604051806040016040528060128152602001711058dadb9bdddb195919d9549958d95a5c1d60721b8152506040518060400160405280600381526020016210549560ea1b815250816000908161009c9190610162565b5060016100a98282610162565b5050600c80546001600160a01b0319163317905550610220565b634e487b7160e01b600052604160045260246000fd5b600181811c908216806100ed57607f821691505b60208210810361010d57634e487b7160e01b600052602260045260246000fd5b50919050565b601f82111561015d57806000526020600020601f840160051c8101602085101561013a5750805b601f840160051c820191505b8181101561015a5760008155600101610146565b50505b505050565b81516001600160401b0381111561017b5761017b6100c3565b61018f8161018984546100d9565b84610113565b6020601f8211600181146101c357600083156101ab5750848201515b600019600385901b1c1916600184901b17845561015a565b600084815260208120601f198516915b828110156101f357878501518255602094850194600190920191016101d3565b50848210156102115786840151600019600387901b60f8161c191681555b50505050600190811b01905550565b608051611beb61023b6000396000610a7f0152611beb6000f3fe60806040526004361061012a5760003560e01c806370a08231116100ab578063a22cb4651161006f578063a22cb46514610329578063b88d4fde14610349578063c87b56dd14610369578063e985e9c514610389578063ede6a2fc146103a9578063f6284a9a146103c957600080fd5b806370a082311461028a57806381f51150146102b857806383c4c00d146102cb57806395d89b41146102e057806397ed0644146102f557600080fd5b80632cf9558c116100f25780632cf9558c1461020057806331115b1c1461022057806342842e0e146102355780634851b760146102555780636352211e1461026a57600080fd5b806301ffc9a71461012f57806306fdde0314610164578063081812fc14610186578063095ea7b3146101be57806323b872dd146101e0575b600080fd5b34801561013b57600080fd5b5061014f61014a3660046112e3565b6103e9565b60405190151581526020015b60405180910390f35b34801561017057600080fd5b50610179610414565b60405161015b9190611350565b34801561019257600080fd5b506101a66101a1366004611363565b6104a6565b6040516001600160a01b03909116815260200161015b565b3480156101ca57600080fd5b506101de6101d9366004611398565b6104cf565b005b3480156101ec57600080fd5b506101de6101fb3660046113c2565b6104de565b34801561020c57600080fd5b506101de61021b366004611363565b61056e565b34801561022c57600080fd5b5061017961060f565b34801561024157600080fd5b506101de6102503660046113c2565b61062b565b34801561026157600080fd5b5061017961064b565b34801561027657600080fd5b506101a6610285366004611363565b6106d9565b34801561029657600080fd5b506102aa6102a53660046113ff565b6106e4565b60405190815260200161015b565b6102aa6102c63660046114c6565b61072c565b3480156102d757600080fd5b506008546102aa565b3480156102ec57600080fd5b506101796107d2565b34801561030157600080fd5b506101796040518060400160405280600881526020016770756c7361722d3360c01b81525081565b34801561033557600080fd5b506101de610344366004611572565b6107e1565b34801561035557600080fd5b506101de6103643660046115ae565b6107ec565b34801561037557600080fd5b50610179610384366004611363565b610803565b34801561039557600080fd5b5061014f6103a4366004611616565b610914565b3480156103b557600080fd5b506101de6103c4366004611649565b610942565b3480156103d557600080fd5b506101de6103e436600461167e565b610998565b60006001600160e01b03198216632483248360e11b148061040e575061040e82610b11565b92915050565b606060008054610423906116e7565b80601f016020809104026020016040519081016040528092919081815260200182805461044f906116e7565b801561049c5780601f106104715761010080835404028352916020019161049c565b820191906000526020600020905b81548152906001019060200180831161047f57829003601f168201915b5050505050905090565b60006104b182610b61565b506000828152600460205260409020546001600160a01b031661040e565b6104da828233610b9a565b5050565b6001600160a01b03821661050d57604051633250574960e11b8152600060048201526024015b60405180910390fd5b600061051a838333610ba7565b9050836001600160a01b0316816001600160a01b031614610568576040516364283d7b60e01b81526001600160a01b0380861660048301526024820184905282166044820152606401610504565b50505050565b6000818152600260205260409020546001600160a01b031633146105c05760405162461bcd60e51b81526020600482015260096024820152682727aa2fa7aba722a960b91b6044820152606401610504565b6000818152600a602052604080822080546001600160a01b031916339081179091559051909183917f43d642ba9f6bc38bb1899907cd24fb61089adcc8c433957a7fe2fb5a5aac19c99190a350565b604051806060016040528060408152602001611b766040913981565b610646838383604051806020016040528060008152506107ec565b505050565b60078054610658906116e7565b80601f0160208091040260200160405190810160405280929190818152602001828054610684906116e7565b80156106d15780601f106106a6576101008083540402835291602001916106d1565b820191906000526020600020905b8154815290600101906020018083116106b457829003601f168201915b505050505081565b600061040e82610b61565b60006001600160a01b038216610710576040516322718ad960e21b815260006004820152602401610504565b506001600160a01b031660009081526003602052604090205490565b600880546000918291908261074083611721565b9190505590506107508682610ca0565b61075a8186610d05565b600081815260096020908152604080832080546001600160a01b0319166001600160a01b038b161790555161079791849133918991899101611771565b60408051601f19818403018152828201909152600582526473746f726560d81b602083015291506107c89082610998565b5095945050505050565b606060018054610423906116e7565b6104da338383610d55565b6107f78484846104de565b61056884848484610df4565b606061080e82610b61565b5060008281526006602052604081208054610828906116e7565b80601f0160208091040260200160405190810160405280929190818152602001828054610854906116e7565b80156108a15780601f10610876576101008083540402835291602001916108a1565b820191906000526020600020905b81548152906001019060200180831161088457829003601f168201915b5050505050905060006108bf60408051602081019091526000815290565b905080516000036108d1575092915050565b8151156109035780826040516020016108eb92919061182f565b60405160208183030381529060405292505050919050565b61090c84610f1d565b949350505050565b6001600160a01b03918216600090815260056020908152604080832093909416825291909152205460ff1690565b600c546001600160a01b0316331461098c5760405162461bcd60e51b815260206004820152600d60248201526c2737ba103a34329037bbb732b960991b6044820152606401610504565b60076104da82826118a5565b604080517f19457468657265756d205369676e6564204d6573736167653a0a333200000000815282516020840120601c820152603c81209082019091526000604051806040016040528060028152602001600081525090506000604051806101200160405280838152602001838152602001604051806060016040528060408152602001611b76604091398152604080518082018252600881526770756c7361722d3360c01b60208281019190915283015280820188905260006060830152620493e0608083015260a0820187905260c0909101849052516339624a6b60e21b81529091507f0000000000000000000000000000000000000000000000000000000000000000906001600160a01b0382169063e58929ac90610ac590879033906007908890600401611a55565b6020604051808303816000875af1158015610ae4573d6000803e3d6000fd5b505050506040513d601f19601f82011682018060405250810190610b089190611b02565b50505050505050565b60006001600160e01b031982166380ac58cd60e01b1480610b4257506001600160e01b03198216635b5e139f60e01b145b8061040e57506301ffc9a760e01b6001600160e01b031983161461040e565b6000818152600260205260408120546001600160a01b03168061040e57604051637e27328960e01b815260048101849052602401610504565b6106468383836001610f92565b6000828152600260205260408120546001600160a01b0390811690831615610bd457610bd4818486611098565b6001600160a01b03811615610c1257610bf1600085600080610f92565b6001600160a01b038116600090815260036020526040902080546000190190555b6001600160a01b03851615610c41576001600160a01b0385166000908152600360205260409020805460010190555b60008481526002602052604080822080546001600160a01b0319166001600160a01b0389811691821790925591518793918516917fddf252ad1be2c89b69c2b068fc378daa952ba7f163c4a11628f55a4df523b3ef91a4949350505050565b6001600160a01b038216610cca57604051633250574960e11b815260006004820152602401610504565b6000610cd883836000610ba7565b90506001600160a01b03811615610646576040516339e3563760e11b815260006004820152602401610504565b6000828152600660205260409020610d1d82826118a5565b506040518281527ff8e1a15aba9398e019f0b49df1a4fde98ee17ae345cb5f6b5e2c27f5033e8ce79060200160405180910390a15050565b6001600160a01b038216610d8757604051630b61174360e31b81526001600160a01b0383166004820152602401610504565b6001600160a01b03838116600081815260056020908152604080832094871680845294825291829020805460ff191686151590811790915591519182527f17307eab39ab6107e8899845ad3d59bd9653f200f220920489ca2b5937696c31910160405180910390a3505050565b6001600160a01b0383163b1561056857604051630a85bd0160e11b81526001600160a01b0384169063150b7a0290610e36903390889087908790600401611b1b565b6020604051808303816000875af1925050508015610e71575060408051601f3d908101601f19168201909252610e6e91810190611b58565b60015b610eda573d808015610e9f576040519150601f19603f3d011682016040523d82523d6000602084013e610ea4565b606091505b508051600003610ed257604051633250574960e11b81526001600160a01b0385166004820152602401610504565b805181602001fd5b6001600160e01b03198116630a85bd0160e11b14610f1657604051633250574960e11b81526001600160a01b0385166004820152602401610504565b5050505050565b6060610f2882610b61565b506000610f4060408051602081019091526000815290565b90506000815111610f605760405180602001604052806000815250610f8b565b80610f6a846110fc565b604051602001610f7b92919061182f565b6040516020818303038152906040525b9392505050565b8080610fa657506001600160a01b03821615155b15611068576000610fb684610b61565b90506001600160a01b03831615801590610fe25750826001600160a01b0316816001600160a01b031614155b8015610ff55750610ff38184610914565b155b1561101e5760405163a9fbf51f60e01b81526001600160a01b0384166004820152602401610504565b81156110665783856001600160a01b0316826001600160a01b03167f8c5be1e5ebec7d5bd14f71427d1e84f3dd0314c0f7b2291e5b200ac8c7c3b92560405160405180910390a45b505b5050600090815260046020526040902080546001600160a01b0319166001600160a01b0392909216919091179055565b6110a383838361118f565b610646576001600160a01b0383166110d157604051637e27328960e01b815260048101829052602401610504565b60405163177e802f60e01b81526001600160a01b038316600482015260248101829052604401610504565b60606000611109836111f2565b600101905060008167ffffffffffffffff8111156111295761112961141a565b6040519080825280601f01601f191660200182016040528015611153576020820181803683370190505b5090508181016020015b600019016f181899199a1a9b1b9c1cb0b131b232b360811b600a86061a8153600a850494508461115d57509392505050565b60006001600160a01b0383161580159061090c5750826001600160a01b0316846001600160a01b031614806111c957506111c98484610914565b8061090c5750506000908152600460205260409020546001600160a01b03908116911614919050565b60008072184f03e93ff9f4daa797ed6e38ed64bf6a1f0160401b83106112315772184f03e93ff9f4daa797ed6e38ed64bf6a1f0160401b830492506040015b6d04ee2d6d415b85acef8100000000831061125d576d04ee2d6d415b85acef8100000000830492506020015b662386f26fc10000831061127b57662386f26fc10000830492506010015b6305f5e1008310611293576305f5e100830492506008015b61271083106112a757612710830492506004015b606483106112b9576064830492506002015b600a831061040e5760010192915050565b6001600160e01b0319811681146112e057600080fd5b50565b6000602082840312156112f557600080fd5b8135610f8b816112ca565b60005b8381101561131b578181015183820152602001611303565b50506000910152565b6000815180845261133c816020860160208601611300565b601f01601f19169290920160200192915050565b602081526000610f8b6020830184611324565b60006020828403121561137557600080fd5b5035919050565b80356001600160a01b038116811461139357600080fd5b919050565b600080604083850312156113ab57600080fd5b6113b48361137c565b946020939093013593505050565b6000806000606084860312156113d757600080fd5b6113e08461137c565b92506113ee6020850161137c565b929592945050506040919091013590565b60006020828403121561141157600080fd5b610f8b8261137c565b634e487b7160e01b600052604160045260246000fd5b600082601f83011261144157600080fd5b81356020830160008067ffffffffffffffff8411156114625761146261141a565b50604051601f19601f85018116603f0116810181811067ffffffffffffffff821117156114915761149161141a565b6040528381529050808284018710156114a957600080fd5b838360208301376000602085830101528094505050505092915050565b600080600080606085870312156114dc57600080fd5b6114e58561137c565b9350602085013567ffffffffffffffff81111561150157600080fd5b61150d87828801611430565b935050604085013567ffffffffffffffff81111561152a57600080fd5b8501601f8101871361153b57600080fd5b803567ffffffffffffffff81111561155257600080fd5b87602082840101111561156457600080fd5b949793965060200194505050565b6000806040838503121561158557600080fd5b61158e8361137c565b9150602083013580151581146115a357600080fd5b809150509250929050565b600080600080608085870312156115c457600080fd5b6115cd8561137c565b93506115db6020860161137c565b925060408501359150606085013567ffffffffffffffff8111156115fe57600080fd5b61160a87828801611430565b91505092959194509250565b6000806040838503121561162957600080fd5b6116328361137c565b91506116406020840161137c565b90509250929050565b60006020828403121561165b57600080fd5b813567ffffffffffffffff81111561167257600080fd5b61090c84828501611430565b6000806040838503121561169157600080fd5b823567ffffffffffffffff8111156116a857600080fd5b6116b485828601611430565b925050602083013567ffffffffffffffff8111156116d157600080fd5b6116dd85828601611430565b9150509250929050565b600181811c908216806116fb57607f821691505b60208210810361171b57634e487b7160e01b600052602260045260246000fd5b50919050565b60006001820161174157634e487b7160e01b600052601160045260246000fd5b5060010190565b81835281816020850137506000828201602090810191909152601f909101601f19169091010190565b60e08082526007908201526603d9134b2111d160cd1b610100820152602081018590526101206040820181905260099082015268016113ab9b2b9111d160bd1b6101408201526001600160a01b038416606082015261016060808201819052600d908201526c016101131b7b73a32b73a111d1609d1b61018082015260006101a0820182810360a0840152611807818587611748565b83810360c085015260018152607d60f81b60208201529050604081015b979650505050505050565b60008351611841818460208801611300565b835190830190611855818360208801611300565b01949350505050565b601f82111561064657806000526020600020601f840160051c810160208510156118855750805b601f840160051c820191505b81811015610f165760008155600101611891565b815167ffffffffffffffff8111156118bf576118bf61141a565b6118d3816118cd84546116e7565b8461185e565b6020601f82116001811461190757600083156118ef5750848201515b600019600385901b1c1916600184901b178455610f16565b600084815260208120601f198516915b828110156119375787850151825560209485019460019092019101611917565b50848210156119555786840151600019600387901b60f8161c191681555b50505050600190811b01905550565b60008151610120845261197b610120850182611324565b9050602083015184820360208601526119948282611324565b915050604083015184820360408601526119ae8282611324565b915050606083015184820360608601526119c88282611324565b915050608083015184820360808601526119e28282611324565b91505060a0830151611a0060a08601826001600160a01b0319169052565b5060c0830151611a1860c086018263ffffffff169052565b5060e083015184820360e0860152611a308282611324565b915050610100830151848203610100860152611a4c8282611324565b95945050505050565b8481526001600160a01b03841660208201526080604082015282546000908190611a7e816116e7565b8060808601526001821660008114611a9d5760018114611ab957611aed565b60ff19831660a087015260a082151560051b8701019350611aed565b87600052602060002060005b83811015611ae457815488820160a00152600190910190602001611ac5565b870160a0019450505b50505082810360608401526118248185611964565b600060208284031215611b1457600080fd5b5051919050565b6001600160a01b0385811682528416602082015260408101839052608060608201819052600090611b4e90830184611324565b9695505050505050565b600060208284031215611b6a57600080fd5b8151610f8b816112ca56fe30356561323133386632643332373236663461366661383865643732383165336439633331666432626633366532613339633538663462613263323130323737a2646970667358221220003d1891aae7524fde85e35dc804264155d7b3a456dd4015d998c019c6e5fb7464736f6c634300081a003373656372657431656834397776677a366a6b756d3467667a326b6570386e6b336c7a683271723739787966686c","linkReferences":{}},"methodIdentifiers":{"approve(address,uint256)":"095ea7b3","balanceOf(address)":"70a08231","createReceipt(address,string,string)":"81f51150","getApproved(uint256)":"081812fc","getLastTokenId()":"83c4c00d","isApprovedForAll(address,address)":"e985e9c5","name()":"06fdde03","ownerOf(uint256)":"6352211e","revealData(uint256)":"2cf9558c","routing_code_hash()":"31115b1c","routing_contract()":"4851b760","safeTransferFrom(address,address,uint256)":"42842e0e","safeTransferFrom(address,address,uint256,bytes)":"b88d4fde","sendMessage(string,bytes)":"f6284a9a","setApprovalForAll(address,bool)":"a22cb465","setRoutingContractAddress(string)":"ede6a2fc","supportsInterface(bytes4)":"01ffc9a7","symbol()":"95d89b41","task_destination_network()":"97ed0644","tokenURI(uint256)":"c87b56dd","transferFrom(address,address,uint256)":"23b872dd"},"id":35}