{"abi":[{"type":"constructor","inputs":[],"stateMutability":"nonpayable"},{"type":"function","name":"approve","inputs":[{"name":"to","type":"address","internalType":"address"},{"name":"tokenId","type":"uint256","internalType":"uint256"}],"outputs":[],"stateMutability":"nonpayable"},{"type":"function","name":"balanceOf","inputs":[{"name":"owner","type":"address","internalType":"address"}],"outputs":[{"name":"","type":"uint256","internalType":"uint256"}],"stateMutability":"view"},{"type":"function","name":"createReceipt","inputs":[{"name":"_recipient","type":"address","internalType":"address"},{"name":"tokenURI","type":"string","internalType":"string"},{"name":"_payloadHash","type":"bytes32","internalType":"bytes32"},{"name":"_routingInfo","type":"string","internalType":"string"},{"name":"_info","type":"tuple","internalType":"struct Gateway.ExecutionInfo","components":[{"name":"user_key","type":"bytes","internalType":"bytes"},{"name":"user_pubkey","type":"bytes","internalType":"bytes"},{"name":"routing_code_hash","type":"string","internalType":"string"},{"name":"task_destination_network","type":"string","internalType":"string"},{"name":"handle","type":"string","internalType":"string"},{"name":"nonce","type":"bytes12","internalType":"bytes12"},{"name":"callback_gas_limit","type":"uint32","internalType":"uint32"},{"name":"payload","type":"bytes","internalType":"bytes"},{"name":"payload_signature","type":"bytes","internalType":"bytes"}]}],"outputs":[{"name":"","type":"uint256","internalType":"uint256"}],"stateMutability":"payable"},{"type":"function","name":"getApproved","inputs":[{"name":"tokenId","type":"uint256","internalType":"uint256"}],"outputs":[{"name":"","type":"address","internalType":"address"}],"stateMutability":"view"},{"type":"function","name":"getLastTokenId","inputs":[],"outputs":[{"name":"","type":"uint256","internalType":"uint256"}],"stateMutability":"view"},{"type":"function","name":"isApprovedForAll","inputs":[{"name":"owner","type":"address","internalType":"address"},{"name":"operator","type":"address","internalType":"address"}],"outputs":[{"name":"","type":"bool","internalType":"bool"}],"stateMutability":"view"},{"type":"function","name":"name","inputs":[],"outputs":[{"name":"","type":"string","internalType":"string"}],"stateMutability":"view"},{"type":"function","name":"ownerOf","inputs":[{"name":"tokenId","type":"uint256","internalType":"uint256"}],"outputs":[{"name":"","type":"address","internalType":"address"}],"stateMutability":"view"},{"type":"function","name":"revealData","inputs":[{"name":"tokenId","type":"uint256","internalType":"uint256"}],"outputs":[],"stateMutability":"nonpayable"},{"type":"function","name":"routing_code_hash","inputs":[],"outputs":[{"name":"","type":"string","internalType":"string"}],"stateMutability":"view"},{"type":"function","name":"routing_contract","inputs":[],"outputs":[{"name":"","type":"string","internalType":"string"}],"stateMutability":"view"},{"type":"function","name":"safeTransferFrom","inputs":[{"name":"from","type":"address","internalType":"address"},{"name":"to","type":"address","internalType":"address"},{"name":"tokenId","type":"uint256","internalType":"uint256"}],"outputs":[],"stateMutability":"nonpayable"},{"type":"function","name":"safeTransferFrom","inputs":[{"name":"from","type":"address","internalType":"address"},{"name":"to","type":"address","internalType":"address"},{"name":"tokenId","type":"uint256","internalType":"uint256"},{"name":"data","type":"bytes","internalType":"bytes"}],"outputs":[],"stateMutability":"nonpayable"},{"type":"function","name":"setApprovalForAll","inputs":[{"name":"operator","type":"address","internalType":"address"},{"name":"approved","type":"bool","internalType":"bool"}],"outputs":[],"stateMutability":"nonpayable"},{"type":"function","name":"setRoutingContractAddress","inputs":[{"name":"secretContract","type":"string","internalType":"string"}],"outputs":[],"stateMutability":"nonpayable"},{"type":"function","name":"supportsInterface","inputs":[{"name":"interfaceId","type":"bytes4","internalType":"bytes4"}],"outputs":[{"name":"","type":"bool","internalType":"bool"}],"stateMutability":"view"},{"type":"function","name":"symbol","inputs":[],"outputs":[{"name":"","type":"string","internalType":"string"}],"stateMutability":"view"},{"type":"function","name":"task_destination_network","inputs":[],"outputs":[{"name":"","type":"string","internalType":"string"}],"stateMutability":"view"},{"type":"function","name":"tokenURI","inputs":[{"name":"tokenId","type":"uint256","internalType":"uint256"}],"outputs":[{"name":"","type":"string","internalType":"string"}],"stateMutability":"view"},{"type":"function","name":"transferFrom","inputs":[{"name":"from","type":"address","internalType":"address"},{"name":"to","type":"address","internalType":"address"},{"name":"tokenId","type":"uint256","internalType":"uint256"}],"outputs":[],"stateMutability":"nonpayable"},{"type":"event","name":"Approval","inputs":[{"name":"owner","type":"address","indexed":true,"internalType":"address"},{"name":"approved","type":"address","indexed":true,"internalType":"address"},{"name":"tokenId","type":"uint256","indexed":true,"internalType":"uint256"}],"anonymous":false},{"type":"event","name":"ApprovalForAll","inputs":[{"name":"owner","type":"address","indexed":true,"internalType":"address"},{"name":"operator","type":"address","indexed":true,"internalType":"address"},{"name":"approved","type":"bool","indexed":false,"internalType":"bool"}],"anonymous":false},{"type":"event","name":"BatchMetadataUpdate","inputs":[{"name":"_fromTokenId","type":"uint256","indexed":false,"internalType":"uint256"},{"name":"_toTokenId","type":"uint256","indexed":false,"internalType":"uint256"}],"anonymous":false},{"type":"event","name":"MetadataUpdate","inputs":[{"name":"_tokenId","type":"uint256","indexed":false,"internalType":"uint256"}],"anonymous":false},{"type":"event","name":"RevealEvent","inputs":[{"name":"tokenId","type":"uint256","indexed":true,"internalType":"uint256"},{"name":"recipient","type":"address","indexed":true,"internalType":"address"}],"anonymous":false},{"type":"event","name":"Transfer","inputs":[{"name":"from","type":"address","indexed":true,"internalType":"address"},{"name":"to","type":"address","indexed":true,"internalType":"address"},{"name":"tokenId","type":"uint256","indexed":true,"internalType":"uint256"}],"anonymous":false},{"type":"error","name":"ERC721IncorrectOwner","inputs":[{"name":"sender","type":"address","internalType":"address"},{"name":"tokenId","type":"uint256","internalType":"uint256"},{"name":"owner","type":"address","internalType":"address"}]},{"type":"error","name":"ERC721InsufficientApproval","inputs":[{"name":"operator","type":"address","internalType":"address"},{"name":"tokenId","type":"uint256","internalType":"uint256"}]},{"type":"error","name":"ERC721InvalidApprover","inputs":[{"name":"approver","type":"address","internalType":"address"}]},{"type":"error","name":"ERC721InvalidOperator","inputs":[{"name":"operator","type":"address","internalType":"address"}]},{"type":"error","name":"ERC721InvalidOwner","inputs":[{"name":"owner","type":"address","internalType":"address"}]},{"type":"error","name":"ERC721InvalidReceiver","inputs":[{"name":"receiver","type":"address","internalType":"address"}]},{"type":"error","name":"ERC721InvalidSender","inputs":[{"name":"sender","type":"address","internalType":"address"}]},{"type":"error","name":"ERC721NonexistentToken","inputs":[{"name":"tokenId","type":"uint256","internalType":"uint256"}]}],"bytecode":{"object":"0x610100604052602d60a081815290611c5b60c0396007906100209082610162565b50738eaab5e8551781f3e8eb745e7fcc7daeefd27b1f60805234801561004557600080fd5b50604051806040016040528060128152602001711058dadb9bdddb195919d9549958d95a5c1d60721b8152506040518060400160405280600381526020016210549560ea1b815250816000908161009c9190610162565b5060016100a98282610162565b5050600c80546001600160a01b0319163317905550610220565b634e487b7160e01b600052604160045260246000fd5b600181811c908216806100ed57607f821691505b60208210810361010d57634e487b7160e01b600052602260045260246000fd5b50919050565b601f82111561015d57806000526020600020601f840160051c8101602085101561013a5750805b601f840160051c820191505b8181101561015a5760008155600101610146565b50505b505050565b81516001600160401b0381111561017b5761017b6100c3565b61018f8161018984546100d9565b84610113565b6020601f8211600181146101c357600083156101ab5750848201515b600019600385901b1c1916600184901b17845561015a565b600084815260208120601f198516915b828110156101f357878501518255602094850194600190920191016101d3565b50848210156102115786840151600019600387901b60f8161c191681555b50505050600190811b01905550565b608051611a2061023b60003960006109310152611a206000f3fe60806040526004361061011f5760003560e01c806370a08231116100a0578063b88d4fde11610064578063b88d4fde1461032b578063c87b56dd1461034b578063e985e9c51461036b578063ede6a2fc1461038b578063f701f1ba146103ab57600080fd5b806370a082311461027f57806383c4c00d146102ad57806395d89b41146102c257806397ed0644146102d7578063a22cb4651461030b57600080fd5b80632cf9558c116100e75780632cf9558c146101f557806331115b1c1461021557806342842e0e1461022a5780634851b7601461024a5780636352211e1461025f57600080fd5b806301ffc9a71461012457806306fdde0314610159578063081812fc1461017b578063095ea7b3146101b357806323b872dd146101d5575b600080fd5b34801561013057600080fd5b5061014461013f366004611195565b6103be565b60405190151581526020015b60405180910390f35b34801561016557600080fd5b5061016e6103e9565b6040516101509190611202565b34801561018757600080fd5b5061019b610196366004611215565b61047b565b6040516001600160a01b039091168152602001610150565b3480156101bf57600080fd5b506101d36101ce36600461124a565b6104a4565b005b3480156101e157600080fd5b506101d36101f0366004611274565b6104b3565b34801561020157600080fd5b506101d3610210366004611215565b610543565b34801561022157600080fd5b5061016e6105e4565b34801561023657600080fd5b506101d3610245366004611274565b610600565b34801561025657600080fd5b5061016e610620565b34801561026b57600080fd5b5061019b61027a366004611215565b6106ae565b34801561028b57600080fd5b5061029f61029a3660046112b1565b6106b9565b604051908152602001610150565b3480156102b957600080fd5b5060085461029f565b3480156102ce57600080fd5b5061016e610701565b3480156102e357600080fd5b5061016e6040518060400160405280600881526020016770756c7361722d3360c01b81525081565b34801561031757600080fd5b506101d36103263660046112cc565b610710565b34801561033757600080fd5b506101d3610346366004611398565b61071b565b34801561035757600080fd5b5061016e610366366004611215565b610732565b34801561037757600080fd5b50610144610386366004611414565b610843565b34801561039757600080fd5b506101d36103a6366004611467565b610871565b61029f6103b93660046114b5565b6108c7565b60006001600160e01b03198216632483248360e11b14806103e357506103e3826109c3565b92915050565b6060600080546103f89061159a565b80601f01602080910402602001604051908101604052809291908181526020018280546104249061159a565b80156104715780601f1061044657610100808354040283529160200191610471565b820191906000526020600020905b81548152906001019060200180831161045457829003601f168201915b5050505050905090565b600061048682610a13565b506000828152600460205260409020546001600160a01b03166103e3565b6104af828233610a4c565b5050565b6001600160a01b0382166104e257604051633250574960e11b8152600060048201526024015b60405180910390fd5b60006104ef838333610a59565b9050836001600160a01b0316816001600160a01b03161461053d576040516364283d7b60e01b81526001600160a01b03808616600483015260248201849052821660448201526064016104d9565b50505050565b6000818152600260205260409020546001600160a01b031633146105955760405162461bcd60e51b81526020600482015260096024820152682727aa2fa7aba722a960b91b60448201526064016104d9565b6000818152600a602052604080822080546001600160a01b031916339081179091559051909183917f43d642ba9f6bc38bb1899907cd24fb61089adcc8c433957a7fe2fb5a5aac19c99190a350565b6040518060600160405280604081526020016119ab6040913981565b61061b8383836040518060200160405280600081525061071b565b505050565b6007805461062d9061159a565b80601f01602080910402602001604051908101604052809291908181526020018280546106599061159a565b80156106a65780601f1061067b576101008083540402835291602001916106a6565b820191906000526020600020905b81548152906001019060200180831161068957829003601f168201915b505050505081565b60006103e382610a13565b60006001600160a01b0382166106e5576040516322718ad960e21b8152600060048201526024016104d9565b506001600160a01b031660009081526003602052604090205490565b6060600180546103f89061159a565b6104af338383610b52565b6107268484846104b3565b61053d84848484610bf1565b606061073d82610a13565b50600082815260066020526040812080546107579061159a565b80601f01602080910402602001604051908101604052809291908181526020018280546107839061159a565b80156107d05780601f106107a5576101008083540402835291602001916107d0565b820191906000526020600020905b8154815290600101906020018083116107b357829003601f168201915b5050505050905060006107ee60408051602081019091526000815290565b90508051600003610800575092915050565b81511561083257808260405160200161081a9291906115ce565b60405160208183030381529060405292505050919050565b61083b84610d1a565b949350505050565b6001600160a01b03918216600090815260056020908152604080832093909416825291909152205460ff1690565b600c546001600160a01b031633146108bb5760405162461bcd60e51b815260206004820152600d60248201526c2737ba103a34329037bbb732b960991b60448201526064016104d9565b60076104af8282611644565b60088054600091829190826108db83611703565b9190505590506108eb8882610d8f565b6108f58188610df4565b6000818152600960205260409081902080546001600160a01b0319166001600160a01b038b81169190911790915590516339624a6b60e21b81527f00000000000000000000000000000000000000000000000000000000000000009182169063e58929ac903490610972908b9033908c908c908c906004016117cc565b60206040518083038185885af1158015610990573d6000803e3d6000fd5b50505050506040513d601f19601f820116820180604052508101906109b59190611937565b509098975050505050505050565b60006001600160e01b031982166380ac58cd60e01b14806109f457506001600160e01b03198216635b5e139f60e01b145b806103e357506301ffc9a760e01b6001600160e01b03198316146103e3565b6000818152600260205260408120546001600160a01b0316806103e357604051637e27328960e01b8152600481018490526024016104d9565b61061b8383836001610e44565b6000828152600260205260408120546001600160a01b0390811690831615610a8657610a86818486610f4a565b6001600160a01b03811615610ac457610aa3600085600080610e44565b6001600160a01b038116600090815260036020526040902080546000190190555b6001600160a01b03851615610af3576001600160a01b0385166000908152600360205260409020805460010190555b60008481526002602052604080822080546001600160a01b0319166001600160a01b0389811691821790925591518793918516917fddf252ad1be2c89b69c2b068fc378daa952ba7f163c4a11628f55a4df523b3ef91a4949350505050565b6001600160a01b038216610b8457604051630b61174360e31b81526001600160a01b03831660048201526024016104d9565b6001600160a01b03838116600081815260056020908152604080832094871680845294825291829020805460ff191686151590811790915591519182527f17307eab39ab6107e8899845ad3d59bd9653f200f220920489ca2b5937696c31910160405180910390a3505050565b6001600160a01b0383163b1561053d57604051630a85bd0160e11b81526001600160a01b0384169063150b7a0290610c33903390889087908790600401611950565b6020604051808303816000875af1925050508015610c6e575060408051601f3d908101601f19168201909252610c6b9181019061198d565b60015b610cd7573d808015610c9c576040519150601f19603f3d011682016040523d82523d6000602084013e610ca1565b606091505b508051600003610ccf57604051633250574960e11b81526001600160a01b03851660048201526024016104d9565b805181602001fd5b6001600160e01b03198116630a85bd0160e11b14610d1357604051633250574960e11b81526001600160a01b03851660048201526024016104d9565b5050505050565b6060610d2582610a13565b506000610d3d60408051602081019091526000815290565b90506000815111610d5d5760405180602001604052806000815250610d88565b80610d6784610fae565b604051602001610d789291906115ce565b6040516020818303038152906040525b9392505050565b6001600160a01b038216610db957604051633250574960e11b8152600060048201526024016104d9565b6000610dc783836000610a59565b90506001600160a01b0381161561061b576040516339e3563760e11b8152600060048201526024016104d9565b6000828152600660205260409020610e0c8282611644565b506040518281527ff8e1a15aba9398e019f0b49df1a4fde98ee17ae345cb5f6b5e2c27f5033e8ce79060200160405180910390a15050565b8080610e5857506001600160a01b03821615155b15610f1a576000610e6884610a13565b90506001600160a01b03831615801590610e945750826001600160a01b0316816001600160a01b031614155b8015610ea75750610ea58184610843565b155b15610ed05760405163a9fbf51f60e01b81526001600160a01b03841660048201526024016104d9565b8115610f185783856001600160a01b0316826001600160a01b03167f8c5be1e5ebec7d5bd14f71427d1e84f3dd0314c0f7b2291e5b200ac8c7c3b92560405160405180910390a45b505b5050600090815260046020526040902080546001600160a01b0319166001600160a01b0392909216919091179055565b610f55838383611041565b61061b576001600160a01b038316610f8357604051637e27328960e01b8152600481018290526024016104d9565b60405163177e802f60e01b81526001600160a01b0383166004820152602481018290526044016104d9565b60606000610fbb836110a4565b600101905060008167ffffffffffffffff811115610fdb57610fdb611308565b6040519080825280601f01601f191660200182016040528015611005576020820181803683370190505b5090508181016020015b600019016f181899199a1a9b1b9c1cb0b131b232b360811b600a86061a8153600a850494508461100f57509392505050565b60006001600160a01b0383161580159061083b5750826001600160a01b0316846001600160a01b0316148061107b575061107b8484610843565b8061083b5750506000908152600460205260409020546001600160a01b03908116911614919050565b60008072184f03e93ff9f4daa797ed6e38ed64bf6a1f0160401b83106110e35772184f03e93ff9f4daa797ed6e38ed64bf6a1f0160401b830492506040015b6d04ee2d6d415b85acef8100000000831061110f576d04ee2d6d415b85acef8100000000830492506020015b662386f26fc10000831061112d57662386f26fc10000830492506010015b6305f5e1008310611145576305f5e100830492506008015b612710831061115957612710830492506004015b6064831061116b576064830492506002015b600a83106103e35760010192915050565b6001600160e01b03198116811461119257600080fd5b50565b6000602082840312156111a757600080fd5b8135610d888161117c565b60005b838110156111cd5781810151838201526020016111b5565b50506000910152565b600081518084526111ee8160208601602086016111b2565b601f01601f19169290920160200192915050565b602081526000610d8860208301846111d6565b60006020828403121561122757600080fd5b5035919050565b80356001600160a01b038116811461124557600080fd5b919050565b6000806040838503121561125d57600080fd5b6112668361122e565b946020939093013593505050565b60008060006060848603121561128957600080fd5b6112928461122e565b92506112a06020850161122e565b929592945050506040919091013590565b6000602082840312156112c357600080fd5b610d888261122e565b600080604083850312156112df57600080fd5b6112e88361122e565b9150602083013580151581146112fd57600080fd5b809150509250929050565b634e487b7160e01b600052604160045260246000fd5b60008067ffffffffffffffff84111561133957611339611308565b50604051601f19601f85018116603f0116810181811067ffffffffffffffff8211171561136857611368611308565b60405283815290508082840185101561138057600080fd5b83836020830137600060208583010152509392505050565b600080600080608085870312156113ae57600080fd5b6113b78561122e565b93506113c56020860161122e565b925060408501359150606085013567ffffffffffffffff8111156113e857600080fd5b8501601f810187136113f957600080fd5b6114088782356020840161131e565b91505092959194509250565b6000806040838503121561142757600080fd5b6114308361122e565b915061143e6020840161122e565b90509250929050565b600082601f83011261145857600080fd5b610d888383356020850161131e565b60006020828403121561147957600080fd5b813567ffffffffffffffff81111561149057600080fd5b61083b84828501611447565b600061012082840312156114af57600080fd5b50919050565b60008060008060008060a087890312156114ce57600080fd5b6114d78761122e565b9550602087013567ffffffffffffffff8111156114f357600080fd5b6114ff89828a01611447565b95505060408701359350606087013567ffffffffffffffff81111561152357600080fd5b8701601f8101891361153457600080fd5b803567ffffffffffffffff81111561154b57600080fd5b89602082840101111561155d57600080fd5b60209190910193509150608087013567ffffffffffffffff81111561158157600080fd5b61158d89828a0161149c565b9150509295509295509295565b600181811c908216806115ae57607f821691505b6020821081036114af57634e487b7160e01b600052602260045260246000fd5b600083516115e08184602088016111b2565b8351908301906115f48183602088016111b2565b01949350505050565b601f82111561061b57806000526020600020601f840160051c810160208510156116245750805b601f840160051c820191505b81811015610d135760008155600101611630565b815167ffffffffffffffff81111561165e5761165e611308565b6116728161166c845461159a565b846115fd565b6020601f8211600181146116a6576000831561168e5750848201515b600019600385901b1c1916600184901b178455610d13565b600084815260208120601f198516915b828110156116d657878501518255602094850194600190920191016116b6565b50848210156116f45786840151600019600387901b60f8161c191681555b50505050600190811b01905550565b60006001820161172357634e487b7160e01b600052601160045260246000fd5b5060010190565b81835281816020850137506000828201602090810191909152601f909101601f19169091010190565b6000808335601e1984360301811261176a57600080fd5b830160208101925035905067ffffffffffffffff81111561178a57600080fd5b80360382131561179957600080fd5b9250929050565b80356001600160a01b03198116811461124557600080fd5b803563ffffffff8116811461124557600080fd5b8581526001600160a01b03851660208201526080604082018190526000906117f7908301858761172a565b82810360608401526118098485611753565b610120835261181d6101208401828461172a565b91505061182d6020860186611753565b838303602085015261184083828461172a565b925050506118516040860186611753565b838303604085015261186483828461172a565b925050506118756060860186611753565b838303606085015261188883828461172a565b925050506118996080860186611753565b83830360808501526118ac83828461172a565b925050506118bc60a086016117a0565b6001600160a01b03191660a08301526118d760c086016117b8565b63ffffffff1660c08301526118ef60e0860186611753565b83830360e085015261190283828461172a565b92505050611914610100860186611753565b83830361010085015261192883828461172a565b9b9a5050505050505050505050565b60006020828403121561194957600080fd5b5051919050565b6001600160a01b0385811682528416602082015260408101839052608060608201819052600090611983908301846111d6565b9695505050505050565b60006020828403121561199f57600080fd5b8151610d888161117c56fe30356561323133386632643332373236663461366661383865643732383165336439633331666432626633366532613339633538663462613263323130323737a2646970667358221220268e8d21626088a6516b2b7815ed05360c2d01b062795419ce83868a3f57fada64736f6c634300081a003373656372657431656834397776677a366a6b756d3467667a326b6570386e6b336c7a683271723739787966686c","linkReferences":{}},"methodIdentifiers":{"approve(address,uint256)":"095ea7b3","balanceOf(address)":"70a08231","createReceipt(address,string,bytes32,string,(bytes,bytes,string,string,string,bytes12,uint32,bytes,bytes))":"f701f1ba","getApproved(uint256)":"081812fc","getLastTokenId()":"83c4c00d","isApprovedForAll(address,address)":"e985e9c5","name()":"06fdde03","ownerOf(uint256)":"6352211e","revealData(uint256)":"2cf9558c","routing_code_hash()":"31115b1c","routing_contract()":"4851b760","safeTransferFrom(address,address,uint256)":"42842e0e","safeTransferFrom(address,address,uint256,bytes)":"b88d4fde","setApprovalForAll(address,bool)":"a22cb465","setRoutingContractAddress(string)":"ede6a2fc","supportsInterface(bytes4)":"01ffc9a7","symbol()":"95d89b41","task_destination_network()":"97ed0644","tokenURI(uint256)":"c87b56dd","transferFrom(address,address,uint256)":"23b872dd"},"id":35}